{"contracts/Voting.sol":{"Voting":{"abi":[{"inputs":[],"stateMutability":"nonpayable","type":"constructor"},{"anonymous":false,"inputs":[{"indexed":false,"internalType":"uint256","name":"pollId","type":"uint256"},{"indexed":false,"internalType":"string","name":"question","type":"string"}],"name":"PollCreated","type":"event"},{"anonymous":false,"inputs":[{"indexed":false,"internalType":"uint256","name":"","type":"uint256"},{"indexed":false,"internalType":"uint256","name":"optionId","type":"uint256"}],"name":"Voted","type":"event"},{"inputs":[{"internalType":"string","name":"_question","type":"string"},{"internalType":"string[]","name":"_options","type":"string[]"}],"name":"createPoll","outputs":[],"stateMutability":"nonpayable","type":"function"},{"inputs":[{"internalType":"uint256","name":"_pollId","type":"uint256"}],"name":"getPoll","outputs":[{"internalType":"string","name":"question","type":"string"},{"internalType":"string[]","name":"options","type":"string[]"},{"internalType":"uint256[]","name":"votes","type":"uint256[]"}],"stateMutability":"view","type":"function"},{"inputs":[{"internalType":"uint256","name":"_pollId","type":"uint256"}],"name":"getPollResults","outputs":[{"internalType":"uint256[]","name":"","type":"uint256[]"}],"stateMutability":"view","type":"function"},{"inputs":[],"name":"owner","outputs":[{"internalType":"address","name":"","type":"address"}],"stateMutability":"view","type":"function"},{"inputs":[{"internalType":"uint256","name":"","type":"uint256"}],"name":"polls","outputs":[{"internalType":"string","name":"question","type":"string"}],"stateMutability":"view","type":"function"},{"inputs":[{"internalType":"uint256","name":"_pollId","type":"uint256"},{"internalType":"uint256","name":"_optionId","type":"uint256"}],"name":"vote","outputs":[],"stateMutability":"nonpayable","type":"function"}],"evm":{"bytecode":{"linkReferences":{},"object":"6080604052348015600f57600080fd5b5033600160006101000a81548173ffffffffffffffffffffffffffffffffffffffff021916908373ffffffffffffffffffffffffffffffffffffffff160217905550611580806100606000396000f3fe608060405234801561001057600080fd5b50600436106100625760003560e01c80631a8cbcaa1461006757806333b4097b146100995780637e3d71c3146100c95780638da5cb5b146100e5578063ac2f007414610103578063b384abef14610133575b600080fd5b610081600480360381019061007c91906109a0565b61014f565b60405161009093929190610c27565b60405180910390f35b6100b360048036038101906100ae91906109a0565b61038b565b6040516100c09190610c73565b60405180910390f35b6100e360048036038101906100de9190610eb0565b61044f565b005b6100ed61060e565b6040516100fa9190610f69565b60405180910390f35b61011d600480360381019061011891906109a0565b610634565b60405161012a9190610f84565b60405180910390f35b61014d60048036038101906101489190610fa6565b6106ea565b005b6060806060600080549050841061019b576040517f08c379a000000000000000000000000000000000000000000000000000000000815260040161019290611032565b60405180910390fd5b60008085815481106101b0576101af611052565b5b906000526020600020906003020190508060000181600101826002018280546101d8906110b0565b80601f0160208091040260200160405190810160405280929190818152602001828054610204906110b0565b80156102515780601f1061022657610100808354040283529160200191610251565b820191906000526020600020905b81548152906001019060200180831161023457829003601f168201915b5050505050925081805480602002602001604051908101604052809291908181526020016000905b82821015610325578382906000526020600020018054610298906110b0565b80601f01602080910402602001604051908101604052809291908181526020018280546102c4906110b0565b80156103115780601f106102e657610100808354040283529160200191610311565b820191906000526020600020905b8154815290600101906020018083116102f457829003601f168201915b505050505081526020019060010190610279565b5050505091508080548060200260200160405190810160405280929190818152602001828054801561037657602002820191906000526020600020905b815481526020019060010190808311610362575b50505050509050935093509350509193909250565b606060008054905082106103d4576040517f08c379a00000000000000000000000000000000000000000000000000000000081526004016103cb90611032565b60405180910390fd5b600082815481106103e8576103e7611052565b5b906000526020600020906003020160020180548060200260200160405190810160405280929190818152602001828054801561044357602002820191906000526020600020905b81548152602001906001019080831161042f575b50505050509050919050565b600160009054906101000a900473ffffffffffffffffffffffffffffffffffffffff1673ffffffffffffffffffffffffffffffffffffffff163373ffffffffffffffffffffffffffffffffffffffff16146104df576040517f08c379a00000000000000000000000000000000000000000000000000000000081526004016104d69061112d565b60405180910390fd5b60006040518060600160405280848152602001838152602001835167ffffffffffffffff81111561051357610512610c9f565b5b6040519080825280602002602001820160405280156105415781602001602082028036833780820191505090505b508152509080600181540180825580915050600190039060005260206000209060030201600090919091909150600082015181600001908161058391906112f9565b5060208201518160010190805190602001906105a092919061082f565b5060408201518160020190805190602001906105bd929190610888565b5050507f65d5ac2bf1bca69566bef1affdfca5bb37b9577fc0b3af4c7c4638225e67b39c60016000805490506105f391906113fa565b8360405161060292919061143d565b60405180910390a15050565b600160009054906101000a900473ffffffffffffffffffffffffffffffffffffffff1681565b6000818154811061064457600080fd5b9060005260206000209060030201600091509050806000018054610667906110b0565b80601f0160208091040260200160405190810160405280929190818152602001828054610693906110b0565b80156106e05780601f106106b5576101008083540402835291602001916106e0565b820191906000526020600020905b8154815290600101906020018083116106c357829003601f168201915b5050505050905081565b6000805490508210610731576040517f08c379a000000000000000000000000000000000000000000000000000000000815260040161072890611032565b60405180910390fd5b6000828154811061074557610744611052565b5b906000526020600020906003020160010180549050811061079b576040517f08c379a0000000000000000000000000000000000000000000000000000000008152600401610792906114b9565b60405180910390fd5b600082815481106107af576107ae611052565b5b906000526020600020906003020160020181815481106107d2576107d1611052565b5b9060005260206000200160008154809291906107ed906114d9565b91905055507f84a5508ca0d85b42a876e75a9126f3ae7b43617ce60b170bf8805d34630bc6548282604051610823929190611521565b60405180910390a15050565b828054828255906000526020600020908101928215610877579160200282015b8281111561087657825182908161086691906112f9565b509160200191906001019061084f565b5b50905061088491906108d5565b5090565b8280548282559060005260206000209081019282156108c4579160200282015b828111156108c35782518255916020019190600101906108a8565b5b5090506108d191906108f9565b5090565b5b808211156108f557600081816108ec9190610916565b506001016108d6565b5090565b5b808211156109125760008160009055506001016108fa565b5090565b508054610922906110b0565b6000825580601f106109345750610953565b601f01602090049060005260206000209081019061095291906108f9565b5b50565b6000604051905090565b600080fd5b600080fd5b6000819050919050565b61097d8161096a565b811461098857600080fd5b50565b60008135905061099a81610974565b92915050565b6000602082840312156109b6576109b5610960565b5b60006109c48482850161098b565b91505092915050565b600081519050919050565b600082825260208201905092915050565b60005b83811015610a075780820151818401526020810190506109ec565b60008484015250505050565b6000601f19601f8301169050919050565b6000610a2f826109cd565b610a3981856109d8565b9350610a498185602086016109e9565b610a5281610a13565b840191505092915050565b600081519050919050565b600082825260208201905092915050565b6000819050602082019050919050565b600082825260208201905092915050565b6000610aa5826109cd565b610aaf8185610a89565b9350610abf8185602086016109e9565b610ac881610a13565b840191505092915050565b6000610adf8383610a9a565b905092915050565b6000602082019050919050565b6000610aff82610a5d565b610b098185610a68565b935083602082028501610b1b85610a79565b8060005b85811015610b575784840389528151610b388582610ad3565b9450610b4383610ae7565b925060208a01995050600181019050610b1f565b50829750879550505050505092915050565b600081519050919050565b600082825260208201905092915050565b6000819050602082019050919050565b610b9e8161096a565b82525050565b6000610bb08383610b95565b60208301905092915050565b6000602082019050919050565b6000610bd482610b69565b610bde8185610b74565b9350610be983610b85565b8060005b83811015610c1a578151610c018882610ba4565b9750610c0c83610bbc565b925050600181019050610bed565b5085935050505092915050565b60006060820190508181036000830152610c418186610a24565b90508181036020830152610c558185610af4565b90508181036040830152610c698184610bc9565b9050949350505050565b60006020820190508181036000830152610c8d8184610bc9565b905092915050565b600080fd5b600080fd5b7f4e487b7100000000000000000000000000000000000000000000000000000000600052604160045260246000fd5b610cd782610a13565b810181811067ffffffffffffffff82111715610cf657610cf5610c9f565b5b80604052505050565b6000610d09610956565b9050610d158282610cce565b919050565b600067ffffffffffffffff821115610d3557610d34610c9f565b5b610d3e82610a13565b9050602081019050919050565b82818337600083830152505050565b6000610d6d610d6884610d1a565b610cff565b905082815260208101848484011115610d8957610d88610c9a565b5b610d94848285610d4b565b509392505050565b600082601f830112610db157610db0610c95565b5b8135610dc1848260208601610d5a565b91505092915050565b600067ffffffffffffffff821115610de557610de4610c9f565b5b602082029050602081019050919050565b600080fd5b6000610e0e610e0984610dca565b610cff565b90508083825260208201905060208402830185811115610e3157610e30610df6565b5b835b81811015610e7857803567ffffffffffffffff811115610e5657610e55610c95565b5b808601610e638982610d9c565b85526020850194505050602081019050610e33565b5050509392505050565b600082601f830112610e9757610e96610c95565b5b8135610ea7848260208601610dfb565b91505092915050565b60008060408385031215610ec757610ec6610960565b5b600083013567ffffffffffffffff811115610ee557610ee4610965565b5b610ef185828601610d9c565b925050602083013567ffffffffffffffff811115610f1257610f11610965565b5b610f1e85828601610e82565b9150509250929050565b600073ffffffffffffffffffffffffffffffffffffffff82169050919050565b6000610f5382610f28565b9050919050565b610f6381610f48565b82525050565b6000602082019050610f7e6000830184610f5a565b92915050565b60006020820190508181036000830152610f9e8184610a24565b905092915050565b60008060408385031215610fbd57610fbc610960565b5b6000610fcb8582860161098b565b9250506020610fdc8582860161098b565b9150509250929050565b7f496e76616c696420706f6c6c2049440000000000000000000000000000000000600082015250565b600061101c600f836109d8565b915061102782610fe6565b602082019050919050565b6000602082019050818103600083015261104b8161100f565b9050919050565b7f4e487b7100000000000000000000000000000000000000000000000000000000600052603260045260246000fd5b7f4e487b7100000000000000000000000000000000000000000000000000000000600052602260045260246000fd5b600060028204905060018216806110c857607f821691505b6020821081036110db576110da611081565b5b50919050565b7f4f6e6c79206f776e65722063616e2063726561746520706f6c6c730000000000600082015250565b6000611117601b836109d8565b9150611122826110e1565b602082019050919050565b600060208201905081810360008301526111468161110a565b9050919050565b60008190508160005260206000209050919050565b60006020601f8301049050919050565b600082821b905092915050565b6000600883026111af7fffffffffffffffffffffffffffffffffffffffffffffffffffffffffffffffff82611172565b6111b98683611172565b95508019841693508086168417925050509392505050565b6000819050919050565b60006111f66111f16111ec8461096a565b6111d1565b61096a565b9050919050565b6000819050919050565b611210836111db565b61122461121c826111fd565b84845461117f565b825550505050565b600090565b61123961122c565b611244818484611207565b505050565b5b818110156112685761125d600082611231565b60018101905061124a565b5050565b601f8211156112ad5761127e8161114d565b61128784611162565b81016020851015611296578190505b6112aa6112a285611162565b830182611249565b50505b505050565b600082821c905092915050565b60006112d0600019846008026112b2565b1980831691505092915050565b60006112e983836112bf565b9150826002028217905092915050565b611302826109cd565b67ffffffffffffffff81111561131b5761131a610c9f565b5b61132582546110b0565b61133082828561126c565b600060209050601f8311600181146113635760008415611351578287015190505b61135b85826112dd565b8655506113c3565b601f1984166113718661114d565b60005b8281101561139957848901518255600182019150602085019450602081019050611374565b868310156113b657848901516113b2601f8916826112bf565b8355505b6001600288020188555050505b505050505050565b7f4e487b7100000000000000000000000000000000000000000000000000000000600052601160045260246000fd5b60006114058261096a565b91506114108361096a565b9250828203905081811115611428576114276113cb565b5b92915050565b6114378161096a565b82525050565b6000604082019050611452600083018561142e565b81810360208301526114648184610a24565b90509392505050565b7f496e76616c6964206f7074696f6e730000000000000000000000000000000000600082015250565b60006114a3600f836109d8565b91506114ae8261146d565b602082019050919050565b600060208201905081810360008301526114d281611496565b9050919050565b60006114e48261096a565b91507fffffffffffffffffffffffffffffffffffffffffffffffffffffffffffffffff8203611516576115156113cb565b5b600182019050919050565b6000604082019050611536600083018561142e565b611543602083018461142e565b939250505056fea2646970667358221220a2388b4a0a28b3057c5f7e2bc258443ce27afcc13258fefda67a4bfaffdc6eb264736f6c634300081c0033","opcodes":"PUSH1 0x80 PUSH1 0x40 MSTORE CALLVALUE DUP1 ISZERO PUSH1 0xF JUMPI PUSH1 0x0 DUP1 REVERT JUMPDEST POP CALLER PUSH1 0x1 PUSH1 0x0 PUSH2 0x100 EXP DUP2 SLOAD DUP2 PUSH20 0xFFFFFFFFFFFFFFFFFFFFFFFFFFFFFFFFFFFFFFFF MUL NOT AND SWAP1 DUP4 PUSH20 0xFFFFFFFFFFFFFFFFFFFFFFFFFFFFFFFFFFFFFFFF AND MUL OR SWAP1 SSTORE POP PUSH2 0x1580 DUP1 PUSH2 0x60 PUSH1 0x0 CODECOPY PUSH1 0x0 RETURN INVALID PUSH1 0x80 PUSH1 0x40 MSTORE CALLVALUE DUP1 ISZERO PUSH2 0x10 JUMPI PUSH1 0x0 DUP1 REVERT JUMPDEST POP PUSH1 0x4 CALLDATASIZE LT PUSH2 0x62 JUMPI PUSH1 0x0 CALLDATALOAD PUSH1 0xE0 SHR DUP1 PUSH4 0x1A8CBCAA EQ PUSH2 0x67 JUMPI DUP1 PUSH4 0x33B4097B EQ PUSH2 0x99 JUMPI DUP1 PUSH4 0x7E3D71C3 EQ PUSH2 0xC9 JUMPI DUP1 PUSH4 0x8DA5CB5B EQ PUSH2 0xE5 JUMPI DUP1 PUSH4 0xAC2F0074 EQ PUSH2 0x103 JUMPI DUP1 PUSH4 0xB384ABEF EQ PUSH2 0x133 JUMPI JUMPDEST PUSH1 0x0 DUP1 REVERT JUMPDEST PUSH2 0x81 PUSH1 0x4 DUP1 CALLDATASIZE SUB DUP2 ADD SWAP1 PUSH2 0x7C SWAP2 SWAP1 PUSH2 0x9A0 JUMP JUMPDEST PUSH2 0x14F JUMP JUMPDEST PUSH1 0x40 MLOAD PUSH2 0x90 SWAP4 SWAP3 SWAP2 SWAP1 PUSH2 0xC27 JUMP JUMPDEST PUSH1 0x40 MLOAD DUP1 SWAP2 SUB SWAP1 RETURN JUMPDEST PUSH2 0xB3 PUSH1 0x4 DUP1 CALLDATASIZE SUB DUP2 ADD SWAP1 PUSH2 0xAE SWAP2 SWAP1 PUSH2 0x9A0 JUMP JUMPDEST PUSH2 0x38B JUMP JUMPDEST PUSH1 0x40 MLOAD PUSH2 0xC0 SWAP2 SWAP1 PUSH2 0xC73 JUMP JUMPDEST PUSH1 0x40 MLOAD DUP1 SWAP2 SUB SWAP1 RETURN JUMPDEST PUSH2 0xE3 PUSH1 0x4 DUP1 CALLDATASIZE SUB DUP2 ADD SWAP1 PUSH2 0xDE SWAP2 SWAP1 PUSH2 0xEB0 JUMP JUMPDEST PUSH2 0x44F JUMP JUMPDEST STOP JUMPDEST PUSH2 0xED PUSH2 0x60E JUMP JUMPDEST PUSH1 0x40 MLOAD PUSH2 0xFA SWAP2 SWAP1 PUSH2 0xF69 JUMP JUMPDEST PUSH1 0x40 MLOAD DUP1 SWAP2 SUB SWAP1 RETURN JUMPDEST PUSH2 0x11D PUSH1 0x4 DUP1 CALLDATASIZE SUB DUP2 ADD SWAP1 PUSH2 0x118 SWAP2 SWAP1 PUSH2 0x9A0 JUMP JUMPDEST PUSH2 0x634 JUMP JUMPDEST PUSH1 0x40 MLOAD PUSH2 0x12A SWAP2 SWAP1 PUSH2 0xF84 JUMP JUMPDEST PUSH1 0x40 MLOAD DUP1 SWAP2 SUB SWAP1 RETURN JUMPDEST PUSH2 0x14D PUSH1 0x4 DUP1 CALLDATASIZE SUB DUP2 ADD SWAP1 PUSH2 0x148 SWAP2 SWAP1 PUSH2 0xFA6 JUMP JUMPDEST PUSH2 0x6EA JUMP JUMPDEST STOP JUMPDEST PUSH1 0x60 DUP1 PUSH1 0x60 PUSH1 0x0 DUP1 SLOAD SWAP1 POP DUP5 LT PUSH2 0x19B JUMPI PUSH1 0x40 MLOAD PUSH32 0x8C379A000000000000000000000000000000000000000000000000000000000 DUP2 MSTORE PUSH1 0x4 ADD PUSH2 0x192 SWAP1 PUSH2 0x1032 JUMP JUMPDEST PUSH1 0x40 MLOAD DUP1 SWAP2 SUB SWAP1 REVERT JUMPDEST PUSH1 0x0 DUP1 DUP6 DUP2 SLOAD DUP2 LT PUSH2 0x1B0 JUMPI PUSH2 0x1AF PUSH2 0x1052 JUMP JUMPDEST JUMPDEST SWAP1 PUSH1 0x0 MSTORE PUSH1 0x20 PUSH1 0x0 KECCAK256 SWAP1 PUSH1 0x3 MUL ADD SWAP1 POP DUP1 PUSH1 0x0 ADD DUP2 PUSH1 0x1 ADD DUP3 PUSH1 0x2 ADD DUP3 DUP1 SLOAD PUSH2 0x1D8 SWAP1 PUSH2 0x10B0 JUMP JUMPDEST DUP1 PUSH1 0x1F ADD PUSH1 0x20 DUP1 SWAP2 DIV MUL PUSH1 0x20 ADD PUSH1 0x40 MLOAD SWAP1 DUP2 ADD PUSH1 0x40 MSTORE DUP1 SWAP3 SWAP2 SWAP1 DUP2 DUP2 MSTORE PUSH1 0x20 ADD DUP3 DUP1 SLOAD PUSH2 0x204 SWAP1 PUSH2 0x10B0 JUMP JUMPDEST DUP1 ISZERO PUSH2 0x251 JUMPI DUP1 PUSH1 0x1F LT PUSH2 0x226 JUMPI PUSH2 0x100 DUP1 DUP4 SLOAD DIV MUL DUP4 MSTORE SWAP2 PUSH1 0x20 ADD SWAP2 PUSH2 0x251 JUMP JUMPDEST DUP3 ADD SWAP2 SWAP1 PUSH1 0x0 MSTORE PUSH1 0x20 PUSH1 0x0 KECCAK256 SWAP1 JUMPDEST DUP2 SLOAD DUP2 MSTORE SWAP1 PUSH1 0x1 ADD SWAP1 PUSH1 0x20 ADD DUP1 DUP4 GT PUSH2 0x234 JUMPI DUP3 SWAP1 SUB PUSH1 0x1F AND DUP3 ADD SWAP2 JUMPDEST POP POP POP POP POP SWAP3 POP DUP2 DUP1 SLOAD DUP1 PUSH1 0x20 MUL PUSH1 0x20 ADD PUSH1 0x40 MLOAD SWAP1 DUP2 ADD PUSH1 0x40 MSTORE DUP1 SWAP3 SWAP2 SWAP1 DUP2 DUP2 MSTORE PUSH1 0x20 ADD PUSH1 0x0 SWAP1 JUMPDEST DUP3 DUP3 LT ISZERO PUSH2 0x325 JUMPI DUP4 DUP3 SWAP1 PUSH1 0x0 MSTORE PUSH1 0x20 PUSH1 0x0 KECCAK256 ADD DUP1 SLOAD PUSH2 0x298 SWAP1 PUSH2 0x10B0 JUMP JUMPDEST DUP1 PUSH1 0x1F ADD PUSH1 0x20 DUP1 SWAP2 DIV MUL PUSH1 0x20 ADD PUSH1 0x40 MLOAD SWAP1 DUP2 ADD PUSH1 0x40 MSTORE DUP1 SWAP3 SWAP2 SWAP1 DUP2 DUP2 MSTORE PUSH1 0x20 ADD DUP3 DUP1 SLOAD PUSH2 0x2C4 SWAP1 PUSH2 0x10B0 JUMP JUMPDEST DUP1 ISZERO PUSH2 0x311 JUMPI DUP1 PUSH1 0x1F LT PUSH2 0x2E6 JUMPI PUSH2 0x100 DUP1 DUP4 SLOAD DIV MUL DUP4 MSTORE SWAP2 PUSH1 0x20 ADD SWAP2 PUSH2 0x311 JUMP JUMPDEST DUP3 ADD SWAP2 SWAP1 PUSH1 0x0 MSTORE PUSH1 0x20 PUSH1 0x0 KECCAK256 SWAP1 JUMPDEST DUP2 SLOAD DUP2 MSTORE SWAP1 PUSH1 0x1 ADD SWAP1 PUSH1 0x20 ADD DUP1 DUP4 GT PUSH2 0x2F4 JUMPI DUP3 SWAP1 SUB PUSH1 0x1F AND DUP3 ADD SWAP2 JUMPDEST POP POP POP POP POP DUP2 MSTORE PUSH1 0x20 ADD SWAP1 PUSH1 0x1 ADD SWAP1 PUSH2 0x279 JUMP JUMPDEST POP POP POP POP SWAP2 POP DUP1 DUP1 SLOAD DUP1 PUSH1 0x20 MUL PUSH1 0x20 ADD PUSH1 0x40 MLOAD SWAP1 DUP2 ADD PUSH1 0x40 MSTORE DUP1 SWAP3 SWAP2 SWAP1 DUP2 DUP2 MSTORE PUSH1 0x20 ADD DUP3 DUP1 SLOAD DUP1 ISZERO PUSH2 0x376 JUMPI PUSH1 0x20 MUL DUP3 ADD SWAP2 SWAP1 PUSH1 0x0 MSTORE PUSH1 0x20 PUSH1 0x0 KECCAK256 SWAP1 JUMPDEST DUP2 SLOAD DUP2 MSTORE PUSH1 0x20 ADD SWAP1 PUSH1 0x1 ADD SWAP1 DUP1 DUP4 GT PUSH2 0x362 JUMPI JUMPDEST POP POP POP POP POP SWAP1 POP SWAP4 POP SWAP4 POP SWAP4 POP POP SWAP2 SWAP4 SWAP1 SWAP3 POP JUMP JUMPDEST PUSH1 0x60 PUSH1 0x0 DUP1 SLOAD SWAP1 POP DUP3 LT PUSH2 0x3D4 JUMPI PUSH1 0x40 MLOAD PUSH32 0x8C379A000000000000000000000000000000000000000000000000000000000 DUP2 MSTORE PUSH1 0x4 ADD PUSH2 0x3CB SWAP1 PUSH2 0x1032 JUMP JUMPDEST PUSH1 0x40 MLOAD DUP1 SWAP2 SUB SWAP1 REVERT JUMPDEST PUSH1 0x0 DUP3 DUP2 SLOAD DUP2 LT PUSH2 0x3E8 JUMPI PUSH2 0x3E7 PUSH2 0x1052 JUMP JUMPDEST JUMPDEST SWAP1 PUSH1 0x0 MSTORE PUSH1 0x20 PUSH1 0x0 KECCAK256 SWAP1 PUSH1 0x3 MUL ADD PUSH1 0x2 ADD DUP1 SLOAD DUP1 PUSH1 0x20 MUL PUSH1 0x20 ADD PUSH1 0x40 MLOAD SWAP1 DUP2 ADD PUSH1 0x40 MSTORE DUP1 SWAP3 SWAP2 SWAP1 DUP2 DUP2 MSTORE PUSH1 0x20 ADD DUP3 DUP1 SLOAD DUP1 ISZERO PUSH2 0x443 JUMPI PUSH1 0x20 MUL DUP3 ADD SWAP2 SWAP1 PUSH1 0x0 MSTORE PUSH1 0x20 PUSH1 0x0 KECCAK256 SWAP1 JUMPDEST DUP2 SLOAD DUP2 MSTORE PUSH1 0x20 ADD SWAP1 PUSH1 0x1 ADD SWAP1 DUP1 DUP4 GT PUSH2 0x42F JUMPI JUMPDEST POP POP POP POP POP SWAP1 POP SWAP2 SWAP1 POP JUMP JUMPDEST PUSH1 0x1 PUSH1 0x0 SWAP1 SLOAD SWAP1 PUSH2 0x100 EXP SWAP1 DIV PUSH20 0xFFFFFFFFFFFFFFFFFFFFFFFFFFFFFFFFFFFFFFFF AND PUSH20 0xFFFFFFFFFFFFFFFFFFFFFFFFFFFFFFFFFFFFFFFF AND CALLER PUSH20 0xFFFFFFFFFFFFFFFFFFFFFFFFFFFFFFFFFFFFFFFF AND EQ PUSH2 0x4DF JUMPI PUSH1 0x40 MLOAD PUSH32 0x8C379A000000000000000000000000000000000000000000000000000000000 DUP2 MSTORE PUSH1 0x4 ADD PUSH2 0x4D6 SWAP1 PUSH2 0x112D JUMP JUMPDEST PUSH1 0x40 MLOAD DUP1 SWAP2 SUB SWAP1 REVERT JUMPDEST PUSH1 0x0 PUSH1 0x40 MLOAD DUP1 PUSH1 0x60 ADD PUSH1 0x40 MSTORE DUP1 DUP5 DUP2 MSTORE PUSH1 0x20 ADD DUP4 DUP2 MSTORE PUSH1 0x20 ADD DUP4 MLOAD PUSH8 0xFFFFFFFFFFFFFFFF DUP2 GT ISZERO PUSH2 0x513 JUMPI PUSH2 0x512 PUSH2 0xC9F JUMP JUMPDEST JUMPDEST PUSH1 0x40 MLOAD SWAP1 DUP1 DUP3 MSTORE DUP1 PUSH1 0x20 MUL PUSH1 0x20 ADD DUP3 ADD PUSH1 0x40 MSTORE DUP1 ISZERO PUSH2 0x541 JUMPI DUP2 PUSH1 0x20 ADD PUSH1 0x20 DUP3 MUL DUP1 CALLDATASIZE DUP4 CALLDATACOPY DUP1 DUP3 ADD SWAP2 POP POP SWAP1 POP JUMPDEST POP DUP2 MSTORE POP SWAP1 DUP1 PUSH1 0x1 DUP2 SLOAD ADD DUP1 DUP3 SSTORE DUP1 SWAP2 POP POP PUSH1 0x1 SWAP1 SUB SWAP1 PUSH1 0x0 MSTORE PUSH1 0x20 PUSH1 0x0 KECCAK256 SWAP1 PUSH1 0x3 MUL ADD PUSH1 0x0 SWAP1 SWAP2 SWAP1 SWAP2 SWAP1 SWAP2 POP PUSH1 0x0 DUP3 ADD MLOAD DUP2 PUSH1 0x0 ADD SWAP1 DUP2 PUSH2 0x583 SWAP2 SWAP1 PUSH2 0x12F9 JUMP JUMPDEST POP PUSH1 0x20 DUP3 ADD MLOAD DUP2 PUSH1 0x1 ADD SWAP1 DUP1 MLOAD SWAP1 PUSH1 0x20 ADD SWAP1 PUSH2 0x5A0 SWAP3 SWAP2 SWAP1 PUSH2 0x82F JUMP JUMPDEST POP PUSH1 0x40 DUP3 ADD MLOAD DUP2 PUSH1 0x2 ADD SWAP1 DUP1 MLOAD SWAP1 PUSH1 0x20 ADD SWAP1 PUSH2 0x5BD SWAP3 SWAP2 SWAP1 PUSH2 0x888 JUMP JUMPDEST POP POP POP PUSH32 0x65D5AC2BF1BCA69566BEF1AFFDFCA5BB37B9577FC0B3AF4C7C4638225E67B39C PUSH1 0x1 PUSH1 0x0 DUP1 SLOAD SWAP1 POP PUSH2 0x5F3 SWAP2 SWAP1 PUSH2 0x13FA JUMP JUMPDEST DUP4 PUSH1 0x40 MLOAD PUSH2 0x602 SWAP3 SWAP2 SWAP1 PUSH2 0x143D JUMP JUMPDEST PUSH1 0x40 MLOAD DUP1 SWAP2 SUB SWAP1 LOG1 POP POP JUMP JUMPDEST PUSH1 0x1 PUSH1 0x0 SWAP1 SLOAD SWAP1 PUSH2 0x100 EXP SWAP1 DIV PUSH20 0xFFFFFFFFFFFFFFFFFFFFFFFFFFFFFFFFFFFFFFFF AND DUP2 JUMP JUMPDEST PUSH1 0x0 DUP2 DUP2 SLOAD DUP2 LT PUSH2 0x644 JUMPI PUSH1 0x0 DUP1 REVERT JUMPDEST SWAP1 PUSH1 0x0 MSTORE PUSH1 0x20 PUSH1 0x0 KECCAK256 SWAP1 PUSH1 0x3 MUL ADD PUSH1 0x0 SWAP2 POP SWAP1 POP DUP1 PUSH1 0x0 ADD DUP1 SLOAD PUSH2 0x667 SWAP1 PUSH2 0x10B0 JUMP JUMPDEST DUP1 PUSH1 0x1F ADD PUSH1 0x20 DUP1 SWAP2 DIV MUL PUSH1 0x20 ADD PUSH1 0x40 MLOAD SWAP1 DUP2 ADD PUSH1 0x40 MSTORE DUP1 SWAP3 SWAP2 SWAP1 DUP2 DUP2 MSTORE PUSH1 0x20 ADD DUP3 DUP1 SLOAD PUSH2 0x693 SWAP1 PUSH2 0x10B0 JUMP JUMPDEST DUP1 ISZERO PUSH2 0x6E0 JUMPI DUP1 PUSH1 0x1F LT PUSH2 0x6B5 JUMPI PUSH2 0x100 DUP1 DUP4 SLOAD DIV MUL DUP4 MSTORE SWAP2 PUSH1 0x20 ADD SWAP2 PUSH2 0x6E0 JUMP JUMPDEST DUP3 ADD SWAP2 SWAP1 PUSH1 0x0 MSTORE PUSH1 0x20 PUSH1 0x0 KECCAK256 SWAP1 JUMPDEST DUP2 SLOAD DUP2 MSTORE SWAP1 PUSH1 0x1 ADD SWAP1 PUSH1 0x20 ADD DUP1 DUP4 GT PUSH2 0x6C3 JUMPI DUP3 SWAP1 SUB PUSH1 0x1F AND DUP3 ADD SWAP2 JUMPDEST POP POP POP POP POP SWAP1 POP DUP2 JUMP JUMPDEST PUSH1 0x0 DUP1 SLOAD SWAP1 POP DUP3 LT PUSH2 0x731 JUMPI PUSH1 0x40 MLOAD PUSH32 0x8C379A000000000000000000000000000000000000000000000000000000000 DUP2 MSTORE PUSH1 0x4 ADD PUSH2 0x728 SWAP1 PUSH2 0x1032 JUMP JUMPDEST PUSH1 0x40 MLOAD DUP1 SWAP2 SUB SWAP1 REVERT JUMPDEST PUSH1 0x0 DUP3 DUP2 SLOAD DUP2 LT PUSH2 0x745 JUMPI PUSH2 0x744 PUSH2 0x1052 JUMP JUMPDEST JUMPDEST SWAP1 PUSH1 0x0 MSTORE PUSH1 0x20 PUSH1 0x0 KECCAK256 SWAP1 PUSH1 0x3 MUL ADD PUSH1 0x1 ADD DUP1 SLOAD SWAP1 POP DUP2 LT PUSH2 0x79B JUMPI PUSH1 0x40 MLOAD PUSH32 0x8C379A000000000000000000000000000000000000000000000000000000000 DUP2 MSTORE PUSH1 0x4 ADD PUSH2 0x792 SWAP1 PUSH2 0x14B9 JUMP JUMPDEST PUSH1 0x40 MLOAD DUP1 SWAP2 SUB SWAP1 REVERT JUMPDEST PUSH1 0x0 DUP3 DUP2 SLOAD DUP2 LT PUSH2 0x7AF JUMPI PUSH2 0x7AE PUSH2 0x1052 JUMP JUMPDEST JUMPDEST SWAP1 PUSH1 0x0 MSTORE PUSH1 0x20 PUSH1 0x0 KECCAK256 SWAP1 PUSH1 0x3 MUL ADD PUSH1 0x2 ADD DUP2 DUP2 SLOAD DUP2 LT PUSH2 0x7D2 JUMPI PUSH2 0x7D1 PUSH2 0x1052 JUMP JUMPDEST JUMPDEST SWAP1 PUSH1 0x0 MSTORE PUSH1 0x20 PUSH1 0x0 KECCAK256 ADD PUSH1 0x0 DUP2 SLOAD DUP1 SWAP3 SWAP2 SWAP1 PUSH2 0x7ED SWAP1 PUSH2 0x14D9 JUMP JUMPDEST SWAP2 SWAP1 POP SSTORE POP PUSH32 0x84A5508CA0D85B42A876E75A9126F3AE7B43617CE60B170BF8805D34630BC654 DUP3 DUP3 PUSH1 0x40 MLOAD PUSH2 0x823 SWAP3 SWAP2 SWAP1 PUSH2 0x1521 JUMP JUMPDEST PUSH1 0x40 MLOAD DUP1 SWAP2 SUB SWAP1 LOG1 POP POP JUMP JUMPDEST DUP3 DUP1 SLOAD DUP3 DUP3 SSTORE SWAP1 PUSH1 0x0 MSTORE PUSH1 0x20 PUSH1 0x0 KECCAK256 SWAP1 DUP2 ADD SWAP3 DUP3 ISZERO PUSH2 0x877 JUMPI SWAP2 PUSH1 0x20 MUL DUP3 ADD JUMPDEST DUP3 DUP2 GT ISZERO PUSH2 0x876 JUMPI DUP3 MLOAD DUP3 SWAP1 DUP2 PUSH2 0x866 SWAP2 SWAP1 PUSH2 0x12F9 JUMP JUMPDEST POP SWAP2 PUSH1 0x20 ADD SWAP2 SWAP1 PUSH1 0x1 ADD SWAP1 PUSH2 0x84F JUMP JUMPDEST JUMPDEST POP SWAP1 POP PUSH2 0x884 SWAP2 SWAP1 PUSH2 0x8D5 JUMP JUMPDEST POP SWAP1 JUMP JUMPDEST DUP3 DUP1 SLOAD DUP3 DUP3 SSTORE SWAP1 PUSH1 0x0 MSTORE PUSH1 0x20 PUSH1 0x0 KECCAK256 SWAP1 DUP2 ADD SWAP3 DUP3 ISZERO PUSH2 0x8C4 JUMPI SWAP2 PUSH1 0x20 MUL DUP3 ADD JUMPDEST DUP3 DUP2 GT ISZERO PUSH2 0x8C3 JUMPI DUP3 MLOAD DUP3 SSTORE SWAP2 PUSH1 0x20 ADD SWAP2 SWAP1 PUSH1 0x1 ADD SWAP1 PUSH2 0x8A8 JUMP JUMPDEST JUMPDEST POP SWAP1 POP PUSH2 0x8D1 SWAP2 SWAP1 PUSH2 0x8F9 JUMP JUMPDEST POP SWAP1 JUMP JUMPDEST JUMPDEST DUP1 DUP3 GT ISZERO PUSH2 0x8F5 JUMPI PUSH1 0x0 DUP2 DUP2 PUSH2 0x8EC SWAP2 SWAP1 PUSH2 0x916 JUMP JUMPDEST POP PUSH1 0x1 ADD PUSH2 0x8D6 JUMP JUMPDEST POP SWAP1 JUMP JUMPDEST JUMPDEST DUP1 DUP3 GT ISZERO PUSH2 0x912 JUMPI PUSH1 0x0 DUP2 PUSH1 0x0 SWAP1 SSTORE POP PUSH1 0x1 ADD PUSH2 0x8FA JUMP JUMPDEST POP SWAP1 JUMP JUMPDEST POP DUP1 SLOAD PUSH2 0x922 SWAP1 PUSH2 0x10B0 JUMP JUMPDEST PUSH1 0x0 DUP3 SSTORE DUP1 PUSH1 0x1F LT PUSH2 0x934 JUMPI POP PUSH2 0x953 JUMP JUMPDEST PUSH1 0x1F ADD PUSH1 0x20 SWAP1 DIV SWAP1 PUSH1 0x0 MSTORE PUSH1 0x20 PUSH1 0x0 KECCAK256 SWAP1 DUP2 ADD SWAP1 PUSH2 0x952 SWAP2 SWAP1 PUSH2 0x8F9 JUMP JUMPDEST JUMPDEST POP JUMP JUMPDEST PUSH1 0x0 PUSH1 0x40 MLOAD SWAP1 POP SWAP1 JUMP JUMPDEST PUSH1 0x0 DUP1 REVERT JUMPDEST PUSH1 0x0 DUP1 REVERT JUMPDEST PUSH1 0x0 DUP2 SWAP1 POP SWAP2 SWAP1 POP JUMP JUMPDEST PUSH2 0x97D DUP2 PUSH2 0x96A JUMP JUMPDEST DUP2 EQ PUSH2 0x988 JUMPI PUSH1 0x0 DUP1 REVERT JUMPDEST POP JUMP JUMPDEST PUSH1 0x0 DUP2 CALLDATALOAD SWAP1 POP PUSH2 0x99A DUP2 PUSH2 0x974 JUMP JUMPDEST SWAP3 SWAP2 POP POP JUMP JUMPDEST PUSH1 0x0 PUSH1 0x20 DUP3 DUP5 SUB SLT ISZERO PUSH2 0x9B6 JUMPI PUSH2 0x9B5 PUSH2 0x960 JUMP JUMPDEST JUMPDEST PUSH1 0x0 PUSH2 0x9C4 DUP5 DUP3 DUP6 ADD PUSH2 0x98B JUMP JUMPDEST SWAP2 POP POP SWAP3 SWAP2 POP POP JUMP JUMPDEST PUSH1 0x0 DUP2 MLOAD SWAP1 POP SWAP2 SWAP1 POP JUMP JUMPDEST PUSH1 0x0 DUP3 DUP3 MSTORE PUSH1 0x20 DUP3 ADD SWAP1 POP SWAP3 SWAP2 POP POP JUMP JUMPDEST PUSH1 0x0 JUMPDEST DUP4 DUP2 LT ISZERO PUSH2 0xA07 JUMPI DUP1 DUP3 ADD MLOAD DUP2 DUP5 ADD MSTORE PUSH1 0x20 DUP2 ADD SWAP1 POP PUSH2 0x9EC JUMP JUMPDEST PUSH1 0x0 DUP5 DUP5 ADD MSTORE POP POP POP POP JUMP JUMPDEST PUSH1 0x0 PUSH1 0x1F NOT PUSH1 0x1F DUP4 ADD AND SWAP1 POP SWAP2 SWAP1 POP JUMP JUMPDEST PUSH1 0x0 PUSH2 0xA2F DUP3 PUSH2 0x9CD JUMP JUMPDEST PUSH2 0xA39 DUP2 DUP6 PUSH2 0x9D8 JUMP JUMPDEST SWAP4 POP PUSH2 0xA49 DUP2 DUP6 PUSH1 0x20 DUP7 ADD PUSH2 0x9E9 JUMP JUMPDEST PUSH2 0xA52 DUP2 PUSH2 0xA13 JUMP JUMPDEST DUP5 ADD SWAP2 POP POP SWAP3 SWAP2 POP POP JUMP JUMPDEST PUSH1 0x0 DUP2 MLOAD SWAP1 POP SWAP2 SWAP1 POP JUMP JUMPDEST PUSH1 0x0 DUP3 DUP3 MSTORE PUSH1 0x20 DUP3 ADD SWAP1 POP SWAP3 SWAP2 POP POP JUMP JUMPDEST PUSH1 0x0 DUP2 SWAP1 POP PUSH1 0x20 DUP3 ADD SWAP1 POP SWAP2 SWAP1 POP JUMP JUMPDEST PUSH1 0x0 DUP3 DUP3 MSTORE PUSH1 0x20 DUP3 ADD SWAP1 POP SWAP3 SWAP2 POP POP JUMP JUMPDEST PUSH1 0x0 PUSH2 0xAA5 DUP3 PUSH2 0x9CD JUMP JUMPDEST PUSH2 0xAAF DUP2 DUP6 PUSH2 0xA89 JUMP JUMPDEST SWAP4 POP PUSH2 0xABF DUP2 DUP6 PUSH1 0x20 DUP7 ADD PUSH2 0x9E9 JUMP JUMPDEST PUSH2 0xAC8 DUP2 PUSH2 0xA13 JUMP JUMPDEST DUP5 ADD SWAP2 POP POP SWAP3 SWAP2 POP POP JUMP JUMPDEST PUSH1 0x0 PUSH2 0xADF DUP4 DUP4 PUSH2 0xA9A JUMP JUMPDEST SWAP1 POP SWAP3 SWAP2 POP POP JUMP JUMPDEST PUSH1 0x0 PUSH1 0x20 DUP3 ADD SWAP1 POP SWAP2 SWAP1 POP JUMP JUMPDEST PUSH1 0x0 PUSH2 0xAFF DUP3 PUSH2 0xA5D JUMP JUMPDEST PUSH2 0xB09 DUP2 DUP6 PUSH2 0xA68 JUMP JUMPDEST SWAP4 POP DUP4 PUSH1 0x20 DUP3 MUL DUP6 ADD PUSH2 0xB1B DUP6 PUSH2 0xA79 JUMP JUMPDEST DUP1 PUSH1 0x0 JUMPDEST DUP6 DUP2 LT ISZERO PUSH2 0xB57 JUMPI DUP5 DUP5 SUB DUP10 MSTORE DUP2 MLOAD PUSH2 0xB38 DUP6 DUP3 PUSH2 0xAD3 JUMP JUMPDEST SWAP5 POP PUSH2 0xB43 DUP4 PUSH2 0xAE7 JUMP JUMPDEST SWAP3 POP PUSH1 0x20 DUP11 ADD SWAP10 POP POP PUSH1 0x1 DUP2 ADD SWAP1 POP PUSH2 0xB1F JUMP JUMPDEST POP DUP3 SWAP8 POP DUP8 SWAP6 POP POP POP POP POP POP SWAP3 SWAP2 POP POP JUMP JUMPDEST PUSH1 0x0 DUP2 MLOAD SWAP1 POP SWAP2 SWAP1 POP JUMP JUMPDEST PUSH1 0x0 DUP3 DUP3 MSTORE PUSH1 0x20 DUP3 ADD SWAP1 POP SWAP3 SWAP2 POP POP JUMP JUMPDEST PUSH1 0x0 DUP2 SWAP1 POP PUSH1 0x20 DUP3 ADD SWAP1 POP SWAP2 SWAP1 POP JUMP JUMPDEST PUSH2 0xB9E DUP2 PUSH2 0x96A JUMP JUMPDEST DUP3 MSTORE POP POP JUMP JUMPDEST PUSH1 0x0 PUSH2 0xBB0 DUP4 DUP4 PUSH2 0xB95 JUMP JUMPDEST PUSH1 0x20 DUP4 ADD SWAP1 POP SWAP3 SWAP2 POP POP JUMP JUMPDEST PUSH1 0x0 PUSH1 0x20 DUP3 ADD SWAP1 POP SWAP2 SWAP1 POP JUMP JUMPDEST PUSH1 0x0 PUSH2 0xBD4 DUP3 PUSH2 0xB69 JUMP JUMPDEST PUSH2 0xBDE DUP2 DUP6 PUSH2 0xB74 JUMP JUMPDEST SWAP4 POP PUSH2 0xBE9 DUP4 PUSH2 0xB85 JUMP JUMPDEST DUP1 PUSH1 0x0 JUMPDEST DUP4 DUP2 LT ISZERO PUSH2 0xC1A JUMPI DUP2 MLOAD PUSH2 0xC01 DUP9 DUP3 PUSH2 0xBA4 JUMP JUMPDEST SWAP8 POP PUSH2 0xC0C DUP4 PUSH2 0xBBC JUMP JUMPDEST SWAP3 POP POP PUSH1 0x1 DUP2 ADD SWAP1 POP PUSH2 0xBED JUMP JUMPDEST POP DUP6 SWAP4 POP POP POP POP SWAP3 SWAP2 POP POP JUMP JUMPDEST PUSH1 0x0 PUSH1 0x60 DUP3 ADD SWAP1 POP DUP2 DUP2 SUB PUSH1 0x0 DUP4 ADD MSTORE PUSH2 0xC41 DUP2 DUP7 PUSH2 0xA24 JUMP JUMPDEST SWAP1 POP DUP2 DUP2 SUB PUSH1 0x20 DUP4 ADD MSTORE PUSH2 0xC55 DUP2 DUP6 PUSH2 0xAF4 JUMP JUMPDEST SWAP1 POP DUP2 DUP2 SUB PUSH1 0x40 DUP4 ADD MSTORE PUSH2 0xC69 DUP2 DUP5 PUSH2 0xBC9 JUMP JUMPDEST SWAP1 POP SWAP5 SWAP4 POP POP POP POP JUMP JUMPDEST PUSH1 0x0 PUSH1 0x20 DUP3 ADD SWAP1 POP DUP2 DUP2 SUB PUSH1 0x0 DUP4 ADD MSTORE PUSH2 0xC8D DUP2 DUP5 PUSH2 0xBC9 JUMP JUMPDEST SWAP1 POP SWAP3 SWAP2 POP POP JUMP JUMPDEST PUSH1 0x0 DUP1 REVERT JUMPDEST PUSH1 0x0 DUP1 REVERT JUMPDEST PUSH32 0x4E487B7100000000000000000000000000000000000000000000000000000000 PUSH1 0x0 MSTORE PUSH1 0x41 PUSH1 0x4 MSTORE PUSH1 0x24 PUSH1 0x0 REVERT JUMPDEST PUSH2 0xCD7 DUP3 PUSH2 0xA13 JUMP JUMPDEST DUP2 ADD DUP2 DUP2 LT PUSH8 0xFFFFFFFFFFFFFFFF DUP3 GT OR ISZERO PUSH2 0xCF6 JUMPI PUSH2 0xCF5 PUSH2 0xC9F JUMP JUMPDEST JUMPDEST DUP1 PUSH1 0x40 MSTORE POP POP POP JUMP JUMPDEST PUSH1 0x0 PUSH2 0xD09 PUSH2 0x956 JUMP JUMPDEST SWAP1 POP PUSH2 0xD15 DUP3 DUP3 PUSH2 0xCCE JUMP JUMPDEST SWAP2 SWAP1 POP JUMP JUMPDEST PUSH1 0x0 PUSH8 0xFFFFFFFFFFFFFFFF DUP3 GT ISZERO PUSH2 0xD35 JUMPI PUSH2 0xD34 PUSH2 0xC9F JUMP JUMPDEST JUMPDEST PUSH2 0xD3E DUP3 PUSH2 0xA13 JUMP JUMPDEST SWAP1 POP PUSH1 0x20 DUP2 ADD SWAP1 POP SWAP2 SWAP1 POP JUMP JUMPDEST DUP3 DUP2 DUP4 CALLDATACOPY PUSH1 0x0 DUP4 DUP4 ADD MSTORE POP POP POP JUMP JUMPDEST PUSH1 0x0 PUSH2 0xD6D PUSH2 0xD68 DUP5 PUSH2 0xD1A JUMP JUMPDEST PUSH2 0xCFF JUMP JUMPDEST SWAP1 POP DUP3 DUP2 MSTORE PUSH1 0x20 DUP2 ADD DUP5 DUP5 DUP5 ADD GT ISZERO PUSH2 0xD89 JUMPI PUSH2 0xD88 PUSH2 0xC9A JUMP JUMPDEST JUMPDEST PUSH2 0xD94 DUP5 DUP3 DUP6 PUSH2 0xD4B JUMP JUMPDEST POP SWAP4 SWAP3 POP POP POP JUMP JUMPDEST PUSH1 0x0 DUP3 PUSH1 0x1F DUP4 ADD SLT PUSH2 0xDB1 JUMPI PUSH2 0xDB0 PUSH2 0xC95 JUMP JUMPDEST JUMPDEST DUP2 CALLDATALOAD PUSH2 0xDC1 DUP5 DUP3 PUSH1 0x20 DUP7 ADD PUSH2 0xD5A JUMP JUMPDEST SWAP2 POP POP SWAP3 SWAP2 POP POP JUMP JUMPDEST PUSH1 0x0 PUSH8 0xFFFFFFFFFFFFFFFF DUP3 GT ISZERO PUSH2 0xDE5 JUMPI PUSH2 0xDE4 PUSH2 0xC9F JUMP JUMPDEST JUMPDEST PUSH1 0x20 DUP3 MUL SWAP1 POP PUSH1 0x20 DUP2 ADD SWAP1 POP SWAP2 SWAP1 POP JUMP JUMPDEST PUSH1 0x0 DUP1 REVERT JUMPDEST PUSH1 0x0 PUSH2 0xE0E PUSH2 0xE09 DUP5 PUSH2 0xDCA JUMP JUMPDEST PUSH2 0xCFF JUMP JUMPDEST SWAP1 POP DUP1 DUP4 DUP3 MSTORE PUSH1 0x20 DUP3 ADD SWAP1 POP PUSH1 0x20 DUP5 MUL DUP4 ADD DUP6 DUP2 GT ISZERO PUSH2 0xE31 JUMPI PUSH2 0xE30 PUSH2 0xDF6 JUMP JUMPDEST JUMPDEST DUP4 JUMPDEST DUP2 DUP2 LT ISZERO PUSH2 0xE78 JUMPI DUP1 CALLDATALOAD PUSH8 0xFFFFFFFFFFFFFFFF DUP2 GT ISZERO PUSH2 0xE56 JUMPI PUSH2 0xE55 PUSH2 0xC95 JUMP JUMPDEST JUMPDEST DUP1 DUP7 ADD PUSH2 0xE63 DUP10 DUP3 PUSH2 0xD9C JUMP JUMPDEST DUP6 MSTORE PUSH1 0x20 DUP6 ADD SWAP5 POP POP POP PUSH1 0x20 DUP2 ADD SWAP1 POP PUSH2 0xE33 JUMP JUMPDEST POP POP POP SWAP4 SWAP3 POP POP POP JUMP JUMPDEST PUSH1 0x0 DUP3 PUSH1 0x1F DUP4 ADD SLT PUSH2 0xE97 JUMPI PUSH2 0xE96 PUSH2 0xC95 JUMP JUMPDEST JUMPDEST DUP2 CALLDATALOAD PUSH2 0xEA7 DUP5 DUP3 PUSH1 0x20 DUP7 ADD PUSH2 0xDFB JUMP JUMPDEST SWAP2 POP POP SWAP3 SWAP2 POP POP JUMP JUMPDEST PUSH1 0x0 DUP1 PUSH1 0x40 DUP4 DUP6 SUB SLT ISZERO PUSH2 0xEC7 JUMPI PUSH2 0xEC6 PUSH2 0x960 JUMP JUMPDEST JUMPDEST PUSH1 0x0 DUP4 ADD CALLDATALOAD PUSH8 0xFFFFFFFFFFFFFFFF DUP2 GT ISZERO PUSH2 0xEE5 JUMPI PUSH2 0xEE4 PUSH2 0x965 JUMP JUMPDEST JUMPDEST PUSH2 0xEF1 DUP6 DUP3 DUP7 ADD PUSH2 0xD9C JUMP JUMPDEST SWAP3 POP POP PUSH1 0x20 DUP4 ADD CALLDATALOAD PUSH8 0xFFFFFFFFFFFFFFFF DUP2 GT ISZERO PUSH2 0xF12 JUMPI PUSH2 0xF11 PUSH2 0x965 JUMP JUMPDEST JUMPDEST PUSH2 0xF1E DUP6 DUP3 DUP7 ADD PUSH2 0xE82 JUMP JUMPDEST SWAP2 POP POP SWAP3 POP SWAP3 SWAP1 POP JUMP JUMPDEST PUSH1 0x0 PUSH20 0xFFFFFFFFFFFFFFFFFFFFFFFFFFFFFFFFFFFFFFFF DUP3 AND SWAP1 POP SWAP2 SWAP1 POP JUMP JUMPDEST PUSH1 0x0 PUSH2 0xF53 DUP3 PUSH2 0xF28 JUMP JUMPDEST SWAP1 POP SWAP2 SWAP1 POP JUMP JUMPDEST PUSH2 0xF63 DUP2 PUSH2 0xF48 JUMP JUMPDEST DUP3 MSTORE POP POP JUMP JUMPDEST PUSH1 0x0 PUSH1 0x20 DUP3 ADD SWAP1 POP PUSH2 0xF7E PUSH1 0x0 DUP4 ADD DUP5 PUSH2 0xF5A JUMP JUMPDEST SWAP3 SWAP2 POP POP JUMP JUMPDEST PUSH1 0x0 PUSH1 0x20 DUP3 ADD SWAP1 POP DUP2 DUP2 SUB PUSH1 0x0 DUP4 ADD MSTORE PUSH2 0xF9E DUP2 DUP5 PUSH2 0xA24 JUMP JUMPDEST SWAP1 POP SWAP3 SWAP2 POP POP JUMP JUMPDEST PUSH1 0x0 DUP1 PUSH1 0x40 DUP4 DUP6 SUB SLT ISZERO PUSH2 0xFBD JUMPI PUSH2 0xFBC PUSH2 0x960 JUMP JUMPDEST JUMPDEST PUSH1 0x0 PUSH2 0xFCB DUP6 DUP3 DUP7 ADD PUSH2 0x98B JUMP JUMPDEST SWAP3 POP POP PUSH1 0x20 PUSH2 0xFDC DUP6 DUP3 DUP7 ADD PUSH2 0x98B JUMP JUMPDEST SWAP2 POP POP SWAP3 POP SWAP3 SWAP1 POP JUMP JUMPDEST PUSH32 0x496E76616C696420706F6C6C2049440000000000000000000000000000000000 PUSH1 0x0 DUP3 ADD MSTORE POP JUMP JUMPDEST PUSH1 0x0 PUSH2 0x101C PUSH1 0xF DUP4 PUSH2 0x9D8 JUMP JUMPDEST SWAP2 POP PUSH2 0x1027 DUP3 PUSH2 0xFE6 JUMP JUMPDEST PUSH1 0x20 DUP3 ADD SWAP1 POP SWAP2 SWAP1 POP JUMP JUMPDEST PUSH1 0x0 PUSH1 0x20 DUP3 ADD SWAP1 POP DUP2 DUP2 SUB PUSH1 0x0 DUP4 ADD MSTORE PUSH2 0x104B DUP2 PUSH2 0x100F JUMP JUMPDEST SWAP1 POP SWAP2 SWAP1 POP JUMP JUMPDEST PUSH32 0x4E487B7100000000000000000000000000000000000000000000000000000000 PUSH1 0x0 MSTORE PUSH1 0x32 PUSH1 0x4 MSTORE PUSH1 0x24 PUSH1 0x0 REVERT JUMPDEST PUSH32 0x4E487B7100000000000000000000000000000000000000000000000000000000 PUSH1 0x0 MSTORE PUSH1 0x22 PUSH1 0x4 MSTORE PUSH1 0x24 PUSH1 0x0 REVERT JUMPDEST PUSH1 0x0 PUSH1 0x2 DUP3 DIV SWAP1 POP PUSH1 0x1 DUP3 AND DUP1 PUSH2 0x10C8 JUMPI PUSH1 0x7F DUP3 AND SWAP2 POP JUMPDEST PUSH1 0x20 DUP3 LT DUP2 SUB PUSH2 0x10DB JUMPI PUSH2 0x10DA PUSH2 0x1081 JUMP JUMPDEST JUMPDEST POP SWAP2 SWAP1 POP JUMP JUMPDEST PUSH32 0x4F6E6C79206F776E65722063616E2063726561746520706F6C6C730000000000 PUSH1 0x0 DUP3 ADD MSTORE POP JUMP JUMPDEST PUSH1 0x0 PUSH2 0x1117 PUSH1 0x1B DUP4 PUSH2 0x9D8 JUMP JUMPDEST SWAP2 POP PUSH2 0x1122 DUP3 PUSH2 0x10E1 JUMP JUMPDEST PUSH1 0x20 DUP3 ADD SWAP1 POP SWAP2 SWAP1 POP JUMP JUMPDEST PUSH1 0x0 PUSH1 0x20 DUP3 ADD SWAP1 POP DUP2 DUP2 SUB PUSH1 0x0 DUP4 ADD MSTORE PUSH2 0x1146 DUP2 PUSH2 0x110A JUMP JUMPDEST SWAP1 POP SWAP2 SWAP1 POP JUMP JUMPDEST PUSH1 0x0 DUP2 SWAP1 POP DUP2 PUSH1 0x0 MSTORE PUSH1 0x20 PUSH1 0x0 KECCAK256 SWAP1 POP SWAP2 SWAP1 POP JUMP JUMPDEST PUSH1 0x0 PUSH1 0x20 PUSH1 0x1F DUP4 ADD DIV SWAP1 POP SWAP2 SWAP1 POP JUMP JUMPDEST PUSH1 0x0 DUP3 DUP3 SHL SWAP1 POP SWAP3 SWAP2 POP POP JUMP JUMPDEST PUSH1 0x0 PUSH1 0x8 DUP4 MUL PUSH2 0x11AF PUSH32 0xFFFFFFFFFFFFFFFFFFFFFFFFFFFFFFFFFFFFFFFFFFFFFFFFFFFFFFFFFFFFFFFF DUP3 PUSH2 0x1172 JUMP JUMPDEST PUSH2 0x11B9 DUP7 DUP4 PUSH2 0x1172 JUMP JUMPDEST SWAP6 POP DUP1 NOT DUP5 AND SWAP4 POP DUP1 DUP7 AND DUP5 OR SWAP3 POP POP POP SWAP4 SWAP3 POP POP POP JUMP JUMPDEST PUSH1 0x0 DUP2 SWAP1 POP SWAP2 SWAP1 POP JUMP JUMPDEST PUSH1 0x0 PUSH2 0x11F6 PUSH2 0x11F1 PUSH2 0x11EC DUP5 PUSH2 0x96A JUMP JUMPDEST PUSH2 0x11D1 JUMP JUMPDEST PUSH2 0x96A JUMP JUMPDEST SWAP1 POP SWAP2 SWAP1 POP JUMP JUMPDEST PUSH1 0x0 DUP2 SWAP1 POP SWAP2 SWAP1 POP JUMP JUMPDEST PUSH2 0x1210 DUP4 PUSH2 0x11DB JUMP JUMPDEST PUSH2 0x1224 PUSH2 0x121C DUP3 PUSH2 0x11FD JUMP JUMPDEST DUP5 DUP5 SLOAD PUSH2 0x117F JUMP JUMPDEST DUP3 SSTORE POP POP POP POP JUMP JUMPDEST PUSH1 0x0 SWAP1 JUMP JUMPDEST PUSH2 0x1239 PUSH2 0x122C JUMP JUMPDEST PUSH2 0x1244 DUP2 DUP5 DUP5 PUSH2 0x1207 JUMP JUMPDEST POP POP POP JUMP JUMPDEST JUMPDEST DUP2 DUP2 LT ISZERO PUSH2 0x1268 JUMPI PUSH2 0x125D PUSH1 0x0 DUP3 PUSH2 0x1231 JUMP JUMPDEST PUSH1 0x1 DUP2 ADD SWAP1 POP PUSH2 0x124A JUMP JUMPDEST POP POP JUMP JUMPDEST PUSH1 0x1F DUP3 GT ISZERO PUSH2 0x12AD JUMPI PUSH2 0x127E DUP2 PUSH2 0x114D JUMP JUMPDEST PUSH2 0x1287 DUP5 PUSH2 0x1162 JUMP JUMPDEST DUP2 ADD PUSH1 0x20 DUP6 LT ISZERO PUSH2 0x1296 JUMPI DUP2 SWAP1 POP JUMPDEST PUSH2 0x12AA PUSH2 0x12A2 DUP6 PUSH2 0x1162 JUMP JUMPDEST DUP4 ADD DUP3 PUSH2 0x1249 JUMP JUMPDEST POP POP JUMPDEST POP POP POP JUMP JUMPDEST PUSH1 0x0 DUP3 DUP3 SHR SWAP1 POP SWAP3 SWAP2 POP POP JUMP JUMPDEST PUSH1 0x0 PUSH2 0x12D0 PUSH1 0x0 NOT DUP5 PUSH1 0x8 MUL PUSH2 0x12B2 JUMP JUMPDEST NOT DUP1 DUP4 AND SWAP2 POP POP SWAP3 SWAP2 POP POP JUMP JUMPDEST PUSH1 0x0 PUSH2 0x12E9 DUP4 DUP4 PUSH2 0x12BF JUMP JUMPDEST SWAP2 POP DUP3 PUSH1 0x2 MUL DUP3 OR SWAP1 POP SWAP3 SWAP2 POP POP JUMP JUMPDEST PUSH2 0x1302 DUP3 PUSH2 0x9CD JUMP JUMPDEST PUSH8 0xFFFFFFFFFFFFFFFF DUP2 GT ISZERO PUSH2 0x131B JUMPI PUSH2 0x131A PUSH2 0xC9F JUMP JUMPDEST JUMPDEST PUSH2 0x1325 DUP3 SLOAD PUSH2 0x10B0 JUMP JUMPDEST PUSH2 0x1330 DUP3 DUP3 DUP6 PUSH2 0x126C JUMP JUMPDEST PUSH1 0x0 PUSH1 0x20 SWAP1 POP PUSH1 0x1F DUP4 GT PUSH1 0x1 DUP2 EQ PUSH2 0x1363 JUMPI PUSH1 0x0 DUP5 ISZERO PUSH2 0x1351 JUMPI DUP3 DUP8 ADD MLOAD SWAP1 POP JUMPDEST PUSH2 0x135B DUP6 DUP3 PUSH2 0x12DD JUMP JUMPDEST DUP7 SSTORE POP PUSH2 0x13C3 JUMP JUMPDEST PUSH1 0x1F NOT DUP5 AND PUSH2 0x1371 DUP7 PUSH2 0x114D JUMP JUMPDEST PUSH1 0x0 JUMPDEST DUP3 DUP2 LT ISZERO PUSH2 0x1399 JUMPI DUP5 DUP10 ADD MLOAD DUP3 SSTORE PUSH1 0x1 DUP3 ADD SWAP2 POP PUSH1 0x20 DUP6 ADD SWAP5 POP PUSH1 0x20 DUP2 ADD SWAP1 POP PUSH2 0x1374 JUMP JUMPDEST DUP7 DUP4 LT ISZERO PUSH2 0x13B6 JUMPI DUP5 DUP10 ADD MLOAD PUSH2 0x13B2 PUSH1 0x1F DUP10 AND DUP3 PUSH2 0x12BF JUMP JUMPDEST DUP4 SSTORE POP JUMPDEST PUSH1 0x1 PUSH1 0x2 DUP9 MUL ADD DUP9 SSTORE POP POP POP JUMPDEST POP POP POP POP POP POP JUMP JUMPDEST PUSH32 0x4E487B7100000000000000000000000000000000000000000000000000000000 PUSH1 0x0 MSTORE PUSH1 0x11 PUSH1 0x4 MSTORE PUSH1 0x24 PUSH1 0x0 REVERT JUMPDEST PUSH1 0x0 PUSH2 0x1405 DUP3 PUSH2 0x96A JUMP JUMPDEST SWAP2 POP PUSH2 0x1410 DUP4 PUSH2 0x96A JUMP JUMPDEST SWAP3 POP DUP3 DUP3 SUB SWAP1 POP DUP2 DUP2 GT ISZERO PUSH2 0x1428 JUMPI PUSH2 0x1427 PUSH2 0x13CB JUMP JUMPDEST JUMPDEST SWAP3 SWAP2 POP POP JUMP JUMPDEST PUSH2 0x1437 DUP2 PUSH2 0x96A JUMP JUMPDEST DUP3 MSTORE POP POP JUMP JUMPDEST PUSH1 0x0 PUSH1 0x40 DUP3 ADD SWAP1 POP PUSH2 0x1452 PUSH1 0x0 DUP4 ADD DUP6 PUSH2 0x142E JUMP JUMPDEST DUP2 DUP2 SUB PUSH1 0x20 DUP4 ADD MSTORE PUSH2 0x1464 DUP2 DUP5 PUSH2 0xA24 JUMP JUMPDEST SWAP1 POP SWAP4 SWAP3 POP POP POP JUMP JUMPDEST PUSH32 0x496E76616C6964206F7074696F6E730000000000000000000000000000000000 PUSH1 0x0 DUP3 ADD MSTORE POP JUMP JUMPDEST PUSH1 0x0 PUSH2 0x14A3 PUSH1 0xF DUP4 PUSH2 0x9D8 JUMP JUMPDEST SWAP2 POP PUSH2 0x14AE DUP3 PUSH2 0x146D JUMP JUMPDEST PUSH1 0x20 DUP3 ADD SWAP1 POP SWAP2 SWAP1 POP JUMP JUMPDEST PUSH1 0x0 PUSH1 0x20 DUP3 ADD SWAP1 POP DUP2 DUP2 SUB PUSH1 0x0 DUP4 ADD MSTORE PUSH2 0x14D2 DUP2 PUSH2 0x1496 JUMP JUMPDEST SWAP1 POP SWAP2 SWAP1 POP JUMP JUMPDEST PUSH1 0x0 PUSH2 0x14E4 DUP3 PUSH2 0x96A JUMP JUMPDEST SWAP2 POP PUSH32 0xFFFFFFFFFFFFFFFFFFFFFFFFFFFFFFFFFFFFFFFFFFFFFFFFFFFFFFFFFFFFFFFF DUP3 SUB PUSH2 0x1516 JUMPI PUSH2 0x1515 PUSH2 0x13CB JUMP JUMPDEST JUMPDEST PUSH1 0x1 DUP3 ADD SWAP1 POP SWAP2 SWAP1 POP JUMP JUMPDEST PUSH1 0x0 PUSH1 0x40 DUP3 ADD SWAP1 POP PUSH2 0x1536 PUSH1 0x0 DUP4 ADD DUP6 PUSH2 0x142E JUMP JUMPDEST PUSH2 0x1543 PUSH1 0x20 DUP4 ADD DUP5 PUSH2 0x142E JUMP JUMPDEST SWAP4 SWAP3 POP POP POP JUMP INVALID LOG2 PUSH5 0x6970667358 0x22 SLT KECCAK256 LOG2 CODESIZE DUP12 BLOBBASEFEE EXP 0x28 0xB3 SDIV PUSH29 0x5F7E2BC258443CE27AFCC13258FEFDA67A4BFAFFDC6EB264736F6C6343 STOP ADDMOD SHR STOP CALLER "},"methodIdentifiers":{"createPoll(string,string[])":"7e3d71c3","getPoll(uint256)":"1a8cbcaa","getPollResults(uint256)":"33b4097b","owner()":"8da5cb5b","polls(uint256)":"ac2f0074","vote(uint256,uint256)":"b384abef"}}}}}