{
  "_format": "hh-sol-artifact-1",
  "contractName": "Voting",
  "sourceName": "contracts/Voting.sol",
  "abi": [
    {
      "inputs": [],
      "stateMutability": "nonpayable",
      "type": "constructor"
    },
    {
      "anonymous": false,
      "inputs": [
        {
          "indexed": false,
          "internalType": "uint256",
          "name": "pollId",
          "type": "uint256"
        },
        {
          "indexed": false,
          "internalType": "string",
          "name": "question",
          "type": "string"
        }
      ],
      "name": "PollCreated",
      "type": "event"
    },
    {
      "anonymous": false,
      "inputs": [
        {
          "indexed": false,
          "internalType": "uint256",
          "name": "",
          "type": "uint256"
        },
        {
          "indexed": false,
          "internalType": "uint256",
          "name": "optionId",
          "type": "uint256"
        }
      ],
      "name": "Voted",
      "type": "event"
    },
    {
      "inputs": [
        {
          "internalType": "string",
          "name": "_question",
          "type": "string"
        },
        {
          "internalType": "string[]",
          "name": "_options",
          "type": "string[]"
        }
      ],
      "name": "createPoll",
      "outputs": [],
      "stateMutability": "nonpayable",
      "type": "function"
    },
    {
      "inputs": [
        {
          "internalType": "uint256",
          "name": "_pollId",
          "type": "uint256"
        }
      ],
      "name": "getPoll",
      "outputs": [
        {
          "internalType": "string",
          "name": "question",
          "type": "string"
        },
        {
          "internalType": "string[]",
          "name": "options",
          "type": "string[]"
        },
        {
          "internalType": "uint256[]",
          "name": "votes",
          "type": "uint256[]"
        }
      ],
      "stateMutability": "view",
      "type": "function"
    },
    {
      "inputs": [
        {
          "internalType": "uint256",
          "name": "_pollId",
          "type": "uint256"
        }
      ],
      "name": "getPollResults",
      "outputs": [
        {
          "internalType": "uint256[]",
          "name": "",
          "type": "uint256[]"
        }
      ],
      "stateMutability": "view",
      "type": "function"
    },
    {
      "inputs": [],
      "name": "owner",
      "outputs": [
        {
          "internalType": "address",
          "name": "",
          "type": "address"
        }
      ],
      "stateMutability": "view",
      "type": "function"
    },
    {
      "inputs": [
        {
          "internalType": "uint256",
          "name": "",
          "type": "uint256"
        }
      ],
      "name": "polls",
      "outputs": [
        {
          "internalType": "string",
          "name": "question",
          "type": "string"
        }
      ],
      "stateMutability": "view",
      "type": "function"
    },
    {
      "inputs": [
        {
          "internalType": "uint256",
          "name": "_pollId",
          "type": "uint256"
        },
        {
          "internalType": "uint256",
          "name": "_optionId",
          "type": "uint256"
        }
      ],
      "name": "vote",
      "outputs": [],
      "stateMutability": "nonpayable",
      "type": "function"
    }
  ],
  "bytecode": "0x6080604052348015600f57600080fd5b5033600160006101000a81548173ffffffffffffffffffffffffffffffffffffffff021916908373ffffffffffffffffffffffffffffffffffffffff160217905550611580806100606000396000f3fe608060405234801561001057600080fd5b50600436106100625760003560e01c80631a8cbcaa1461006757806333b4097b146100995780637e3d71c3146100c95780638da5cb5b146100e5578063ac2f007414610103578063b384abef14610133575b600080fd5b610081600480360381019061007c91906109a0565b61014f565b60405161009093929190610c27565b60405180910390f35b6100b360048036038101906100ae91906109a0565b61038b565b6040516100c09190610c73565b60405180910390f35b6100e360048036038101906100de9190610eb0565b61044f565b005b6100ed61060e565b6040516100fa9190610f69565b60405180910390f35b61011d600480360381019061011891906109a0565b610634565b60405161012a9190610f84565b60405180910390f35b61014d60048036038101906101489190610fa6565b6106ea565b005b6060806060600080549050841061019b576040517f08c379a000000000000000000000000000000000000000000000000000000000815260040161019290611032565b60405180910390fd5b60008085815481106101b0576101af611052565b5b906000526020600020906003020190508060000181600101826002018280546101d8906110b0565b80601f0160208091040260200160405190810160405280929190818152602001828054610204906110b0565b80156102515780601f1061022657610100808354040283529160200191610251565b820191906000526020600020905b81548152906001019060200180831161023457829003601f168201915b5050505050925081805480602002602001604051908101604052809291908181526020016000905b82821015610325578382906000526020600020018054610298906110b0565b80601f01602080910402602001604051908101604052809291908181526020018280546102c4906110b0565b80156103115780601f106102e657610100808354040283529160200191610311565b820191906000526020600020905b8154815290600101906020018083116102f457829003601f168201915b505050505081526020019060010190610279565b5050505091508080548060200260200160405190810160405280929190818152602001828054801561037657602002820191906000526020600020905b815481526020019060010190808311610362575b50505050509050935093509350509193909250565b606060008054905082106103d4576040517f08c379a00000000000000000000000000000000000000000000000000000000081526004016103cb90611032565b60405180910390fd5b600082815481106103e8576103e7611052565b5b906000526020600020906003020160020180548060200260200160405190810160405280929190818152602001828054801561044357602002820191906000526020600020905b81548152602001906001019080831161042f575b50505050509050919050565b600160009054906101000a900473ffffffffffffffffffffffffffffffffffffffff1673ffffffffffffffffffffffffffffffffffffffff163373ffffffffffffffffffffffffffffffffffffffff16146104df576040517f08c379a00000000000000000000000000000000000000000000000000000000081526004016104d69061112d565b60405180910390fd5b60006040518060600160405280848152602001838152602001835167ffffffffffffffff81111561051357610512610c9f565b5b6040519080825280602002602001820160405280156105415781602001602082028036833780820191505090505b508152509080600181540180825580915050600190039060005260206000209060030201600090919091909150600082015181600001908161058391906112f9565b5060208201518160010190805190602001906105a092919061082f565b5060408201518160020190805190602001906105bd929190610888565b5050507f65d5ac2bf1bca69566bef1affdfca5bb37b9577fc0b3af4c7c4638225e67b39c60016000805490506105f391906113fa565b8360405161060292919061143d565b60405180910390a15050565b600160009054906101000a900473ffffffffffffffffffffffffffffffffffffffff1681565b6000818154811061064457600080fd5b9060005260206000209060030201600091509050806000018054610667906110b0565b80601f0160208091040260200160405190810160405280929190818152602001828054610693906110b0565b80156106e05780601f106106b5576101008083540402835291602001916106e0565b820191906000526020600020905b8154815290600101906020018083116106c357829003601f168201915b5050505050905081565b6000805490508210610731576040517f08c379a000000000000000000000000000000000000000000000000000000000815260040161072890611032565b60405180910390fd5b6000828154811061074557610744611052565b5b906000526020600020906003020160010180549050811061079b576040517f08c379a0000000000000000000000000000000000000000000000000000000008152600401610792906114b9565b60405180910390fd5b600082815481106107af576107ae611052565b5b906000526020600020906003020160020181815481106107d2576107d1611052565b5b9060005260206000200160008154809291906107ed906114d9565b91905055507f84a5508ca0d85b42a876e75a9126f3ae7b43617ce60b170bf8805d34630bc6548282604051610823929190611521565b60405180910390a15050565b828054828255906000526020600020908101928215610877579160200282015b8281111561087657825182908161086691906112f9565b509160200191906001019061084f565b5b50905061088491906108d5565b5090565b8280548282559060005260206000209081019282156108c4579160200282015b828111156108c35782518255916020019190600101906108a8565b5b5090506108d191906108f9565b5090565b5b808211156108f557600081816108ec9190610916565b506001016108d6565b5090565b5b808211156109125760008160009055506001016108fa565b5090565b508054610922906110b0565b6000825580601f106109345750610953565b601f01602090049060005260206000209081019061095291906108f9565b5b50565b6000604051905090565b600080fd5b600080fd5b6000819050919050565b61097d8161096a565b811461098857600080fd5b50565b60008135905061099a81610974565b92915050565b6000602082840312156109b6576109b5610960565b5b60006109c48482850161098b565b91505092915050565b600081519050919050565b600082825260208201905092915050565b60005b83811015610a075780820151818401526020810190506109ec565b60008484015250505050565b6000601f19601f8301169050919050565b6000610a2f826109cd565b610a3981856109d8565b9350610a498185602086016109e9565b610a5281610a13565b840191505092915050565b600081519050919050565b600082825260208201905092915050565b6000819050602082019050919050565b600082825260208201905092915050565b6000610aa5826109cd565b610aaf8185610a89565b9350610abf8185602086016109e9565b610ac881610a13565b840191505092915050565b6000610adf8383610a9a565b905092915050565b6000602082019050919050565b6000610aff82610a5d565b610b098185610a68565b935083602082028501610b1b85610a79565b8060005b85811015610b575784840389528151610b388582610ad3565b9450610b4383610ae7565b925060208a01995050600181019050610b1f565b50829750879550505050505092915050565b600081519050919050565b600082825260208201905092915050565b6000819050602082019050919050565b610b9e8161096a565b82525050565b6000610bb08383610b95565b60208301905092915050565b6000602082019050919050565b6000610bd482610b69565b610bde8185610b74565b9350610be983610b85565b8060005b83811015610c1a578151610c018882610ba4565b9750610c0c83610bbc565b925050600181019050610bed565b5085935050505092915050565b60006060820190508181036000830152610c418186610a24565b90508181036020830152610c558185610af4565b90508181036040830152610c698184610bc9565b9050949350505050565b60006020820190508181036000830152610c8d8184610bc9565b905092915050565b600080fd5b600080fd5b7f4e487b7100000000000000000000000000000000000000000000000000000000600052604160045260246000fd5b610cd782610a13565b810181811067ffffffffffffffff82111715610cf657610cf5610c9f565b5b80604052505050565b6000610d09610956565b9050610d158282610cce565b919050565b600067ffffffffffffffff821115610d3557610d34610c9f565b5b610d3e82610a13565b9050602081019050919050565b82818337600083830152505050565b6000610d6d610d6884610d1a565b610cff565b905082815260208101848484011115610d8957610d88610c9a565b5b610d94848285610d4b565b509392505050565b600082601f830112610db157610db0610c95565b5b8135610dc1848260208601610d5a565b91505092915050565b600067ffffffffffffffff821115610de557610de4610c9f565b5b602082029050602081019050919050565b600080fd5b6000610e0e610e0984610dca565b610cff565b90508083825260208201905060208402830185811115610e3157610e30610df6565b5b835b81811015610e7857803567ffffffffffffffff811115610e5657610e55610c95565b5b808601610e638982610d9c565b85526020850194505050602081019050610e33565b5050509392505050565b600082601f830112610e9757610e96610c95565b5b8135610ea7848260208601610dfb565b91505092915050565b60008060408385031215610ec757610ec6610960565b5b600083013567ffffffffffffffff811115610ee557610ee4610965565b5b610ef185828601610d9c565b925050602083013567ffffffffffffffff811115610f1257610f11610965565b5b610f1e85828601610e82565b9150509250929050565b600073ffffffffffffffffffffffffffffffffffffffff82169050919050565b6000610f5382610f28565b9050919050565b610f6381610f48565b82525050565b6000602082019050610f7e6000830184610f5a565b92915050565b60006020820190508181036000830152610f9e8184610a24565b905092915050565b60008060408385031215610fbd57610fbc610960565b5b6000610fcb8582860161098b565b9250506020610fdc8582860161098b565b9150509250929050565b7f496e76616c696420706f6c6c2049440000000000000000000000000000000000600082015250565b600061101c600f836109d8565b915061102782610fe6565b602082019050919050565b6000602082019050818103600083015261104b8161100f565b9050919050565b7f4e487b7100000000000000000000000000000000000000000000000000000000600052603260045260246000fd5b7f4e487b7100000000000000000000000000000000000000000000000000000000600052602260045260246000fd5b600060028204905060018216806110c857607f821691505b6020821081036110db576110da611081565b5b50919050565b7f4f6e6c79206f776e65722063616e2063726561746520706f6c6c730000000000600082015250565b6000611117601b836109d8565b9150611122826110e1565b602082019050919050565b600060208201905081810360008301526111468161110a565b9050919050565b60008190508160005260206000209050919050565b60006020601f8301049050919050565b600082821b905092915050565b6000600883026111af7fffffffffffffffffffffffffffffffffffffffffffffffffffffffffffffffff82611172565b6111b98683611172565b95508019841693508086168417925050509392505050565b6000819050919050565b60006111f66111f16111ec8461096a565b6111d1565b61096a565b9050919050565b6000819050919050565b611210836111db565b61122461121c826111fd565b84845461117f565b825550505050565b600090565b61123961122c565b611244818484611207565b505050565b5b818110156112685761125d600082611231565b60018101905061124a565b5050565b601f8211156112ad5761127e8161114d565b61128784611162565b81016020851015611296578190505b6112aa6112a285611162565b830182611249565b50505b505050565b600082821c905092915050565b60006112d0600019846008026112b2565b1980831691505092915050565b60006112e983836112bf565b9150826002028217905092915050565b611302826109cd565b67ffffffffffffffff81111561131b5761131a610c9f565b5b61132582546110b0565b61133082828561126c565b600060209050601f8311600181146113635760008415611351578287015190505b61135b85826112dd565b8655506113c3565b601f1984166113718661114d565b60005b8281101561139957848901518255600182019150602085019450602081019050611374565b868310156113b657848901516113b2601f8916826112bf565b8355505b6001600288020188555050505b505050505050565b7f4e487b7100000000000000000000000000000000000000000000000000000000600052601160045260246000fd5b60006114058261096a565b91506114108361096a565b9250828203905081811115611428576114276113cb565b5b92915050565b6114378161096a565b82525050565b6000604082019050611452600083018561142e565b81810360208301526114648184610a24565b90509392505050565b7f496e76616c6964206f7074696f6e730000000000000000000000000000000000600082015250565b60006114a3600f836109d8565b91506114ae8261146d565b602082019050919050565b600060208201905081810360008301526114d281611496565b9050919050565b60006114e48261096a565b91507fffffffffffffffffffffffffffffffffffffffffffffffffffffffffffffffff8203611516576115156113cb565b5b600182019050919050565b6000604082019050611536600083018561142e565b611543602083018461142e565b939250505056fea2646970667358221220a2388b4a0a28b3057c5f7e2bc258443ce27afcc13258fefda67a4bfaffdc6eb264736f6c634300081c0033",
  "linkReferences": {},
  "deployedLinkReferences": {}
}